{
  "address": "0xb293E5cd1836C62EDD273E56488b7a140D696F16",
  "abi": [
    {
      "inputs": [],
      "stateMutability": "nonpayable",
      "type": "constructor"
    },
    {
      "inputs": [
        {
          "internalType": "address",
          "name": "sender",
          "type": "address"
        },
        {
          "internalType": "uint256",
          "name": "balance",
          "type": "uint256"
        },
        {
          "internalType": "uint256",
          "name": "needed",
          "type": "uint256"
        },
        {
          "internalType": "uint256",
          "name": "tokenId",
          "type": "uint256"
        }
      ],
      "name": "ERC1155InsufficientBalance",
      "type": "error"
    },
    {
      "inputs": [
        {
          "internalType": "address",
          "name": "approver",
          "type": "address"
        }
      ],
      "name": "ERC1155InvalidApprover",
      "type": "error"
    },
    {
      "inputs": [
        {
          "internalType": "uint256",
          "name": "idsLength",
          "type": "uint256"
        },
        {
          "internalType": "uint256",
          "name": "valuesLength",
          "type": "uint256"
        }
      ],
      "name": "ERC1155InvalidArrayLength",
      "type": "error"
    },
    {
      "inputs": [
        {
          "internalType": "address",
          "name": "operator",
          "type": "address"
        }
      ],
      "name": "ERC1155InvalidOperator",
      "type": "error"
    },
    {
      "inputs": [
        {
          "internalType": "address",
          "name": "receiver",
          "type": "address"
        }
      ],
      "name": "ERC1155InvalidReceiver",
      "type": "error"
    },
    {
      "inputs": [
        {
          "internalType": "address",
          "name": "sender",
          "type": "address"
        }
      ],
      "name": "ERC1155InvalidSender",
      "type": "error"
    },
    {
      "inputs": [
        {
          "internalType": "address",
          "name": "operator",
          "type": "address"
        },
        {
          "internalType": "address",
          "name": "owner",
          "type": "address"
        }
      ],
      "name": "ERC1155MissingApprovalForAll",
      "type": "error"
    },
    {
      "anonymous": false,
      "inputs": [
        {
          "indexed": true,
          "internalType": "address",
          "name": "account",
          "type": "address"
        },
        {
          "indexed": true,
          "internalType": "address",
          "name": "operator",
          "type": "address"
        },
        {
          "indexed": false,
          "internalType": "bool",
          "name": "approved",
          "type": "bool"
        }
      ],
      "name": "ApprovalForAll",
      "type": "event"
    },
    {
      "anonymous": false,
      "inputs": [
        {
          "indexed": true,
          "internalType": "uint256",
          "name": "batchId",
          "type": "uint256"
        },
        {
          "indexed": false,
          "internalType": "string",
          "name": "farmName",
          "type": "string"
        },
        {
          "indexed": false,
          "internalType": "string",
          "name": "region",
          "type": "string"
        },
        {
          "indexed": false,
          "internalType": "string",
          "name": "variety",
          "type": "string"
        },
        {
          "indexed": false,
          "internalType": "uint256",
          "name": "harvestDate",
          "type": "uint256"
        }
      ],
      "name": "Harvested",
      "type": "event"
    },
    {
      "anonymous": false,
      "inputs": [
        {
          "indexed": true,
          "internalType": "address",
          "name": "operator",
          "type": "address"
        },
        {
          "indexed": true,
          "internalType": "address",
          "name": "from",
          "type": "address"
        },
        {
          "indexed": true,
          "internalType": "address",
          "name": "to",
          "type": "address"
        },
        {
          "indexed": false,
          "internalType": "uint256[]",
          "name": "ids",
          "type": "uint256[]"
        },
        {
          "indexed": false,
          "internalType": "uint256[]",
          "name": "values",
          "type": "uint256[]"
        }
      ],
      "name": "TransferBatch",
      "type": "event"
    },
    {
      "anonymous": false,
      "inputs": [
        {
          "indexed": true,
          "internalType": "address",
          "name": "operator",
          "type": "address"
        },
        {
          "indexed": true,
          "internalType": "address",
          "name": "from",
          "type": "address"
        },
        {
          "indexed": true,
          "internalType": "address",
          "name": "to",
          "type": "address"
        },
        {
          "indexed": false,
          "internalType": "uint256",
          "name": "id",
          "type": "uint256"
        },
        {
          "indexed": false,
          "internalType": "uint256",
          "name": "value",
          "type": "uint256"
        }
      ],
      "name": "TransferSingle",
      "type": "event"
    },
    {
      "anonymous": false,
      "inputs": [
        {
          "indexed": false,
          "internalType": "string",
          "name": "value",
          "type": "string"
        },
        {
          "indexed": true,
          "internalType": "uint256",
          "name": "id",
          "type": "uint256"
        }
      ],
      "name": "URI",
      "type": "event"
    },
    {
      "inputs": [
        {
          "internalType": "address",
          "name": "account",
          "type": "address"
        },
        {
          "internalType": "uint256",
          "name": "id",
          "type": "uint256"
        }
      ],
      "name": "balanceOf",
      "outputs": [
        {
          "internalType": "uint256",
          "name": "",
          "type": "uint256"
        }
      ],
      "stateMutability": "view",
      "type": "function"
    },
    {
      "inputs": [
        {
          "internalType": "address[]",
          "name": "accounts",
          "type": "address[]"
        },
        {
          "internalType": "uint256[]",
          "name": "ids",
          "type": "uint256[]"
        }
      ],
      "name": "balanceOfBatch",
      "outputs": [
        {
          "internalType": "uint256[]",
          "name": "",
          "type": "uint256[]"
        }
      ],
      "stateMutability": "view",
      "type": "function"
    },
    {
      "inputs": [
        {
          "internalType": "uint256",
          "name": "",
          "type": "uint256"
        }
      ],
      "name": "batches",
      "outputs": [
        {
          "internalType": "string",
          "name": "farmName",
          "type": "string"
        },
        {
          "internalType": "string",
          "name": "region",
          "type": "string"
        },
        {
          "internalType": "string",
          "name": "variety",
          "type": "string"
        },
        {
          "internalType": "uint256",
          "name": "harvestDate",
          "type": "uint256"
        }
      ],
      "stateMutability": "view",
      "type": "function"
    },
    {
      "inputs": [],
      "name": "currentBatchId",
      "outputs": [
        {
          "internalType": "uint256",
          "name": "",
          "type": "uint256"
        }
      ],
      "stateMutability": "view",
      "type": "function"
    },
    {
      "inputs": [
        {
          "internalType": "string",
          "name": "_farm",
          "type": "string"
        },
        {
          "internalType": "string",
          "name": "_region",
          "type": "string"
        },
        {
          "internalType": "string",
          "name": "_variety",
          "type": "string"
        },
        {
          "internalType": "uint256",
          "name": "_quantity",
          "type": "uint256"
        }
      ],
      "name": "harvestBatch",
      "outputs": [],
      "stateMutability": "nonpayable",
      "type": "function"
    },
    {
      "inputs": [
        {
          "internalType": "address",
          "name": "account",
          "type": "address"
        },
        {
          "internalType": "address",
          "name": "operator",
          "type": "address"
        }
      ],
      "name": "isApprovedForAll",
      "outputs": [
        {
          "internalType": "bool",
          "name": "",
          "type": "bool"
        }
      ],
      "stateMutability": "view",
      "type": "function"
    },
    {
      "inputs": [
        {
          "internalType": "address",
          "name": "from",
          "type": "address"
        },
        {
          "internalType": "address",
          "name": "to",
          "type": "address"
        },
        {
          "internalType": "uint256[]",
          "name": "ids",
          "type": "uint256[]"
        },
        {
          "internalType": "uint256[]",
          "name": "values",
          "type": "uint256[]"
        },
        {
          "internalType": "bytes",
          "name": "data",
          "type": "bytes"
        }
      ],
      "name": "safeBatchTransferFrom",
      "outputs": [],
      "stateMutability": "nonpayable",
      "type": "function"
    },
    {
      "inputs": [
        {
          "internalType": "address",
          "name": "from",
          "type": "address"
        },
        {
          "internalType": "address",
          "name": "to",
          "type": "address"
        },
        {
          "internalType": "uint256",
          "name": "id",
          "type": "uint256"
        },
        {
          "internalType": "uint256",
          "name": "value",
          "type": "uint256"
        },
        {
          "internalType": "bytes",
          "name": "data",
          "type": "bytes"
        }
      ],
      "name": "safeTransferFrom",
      "outputs": [],
      "stateMutability": "nonpayable",
      "type": "function"
    },
    {
      "inputs": [
        {
          "internalType": "address",
          "name": "operator",
          "type": "address"
        },
        {
          "internalType": "bool",
          "name": "approved",
          "type": "bool"
        }
      ],
      "name": "setApprovalForAll",
      "outputs": [],
      "stateMutability": "nonpayable",
      "type": "function"
    },
    {
      "inputs": [
        {
          "internalType": "bytes4",
          "name": "interfaceId",
          "type": "bytes4"
        }
      ],
      "name": "supportsInterface",
      "outputs": [
        {
          "internalType": "bool",
          "name": "",
          "type": "bool"
        }
      ],
      "stateMutability": "view",
      "type": "function"
    },
    {
      "inputs": [
        {
          "internalType": "uint256",
          "name": "",
          "type": "uint256"
        }
      ],
      "name": "uri",
      "outputs": [
        {
          "internalType": "string",
          "name": "",
          "type": "string"
        }
      ],
      "stateMutability": "view",
      "type": "function"
    }
  ],
  "transactionHash": "0x5109ac96efce70ef39f454cf2baaf010a1ac50f75b368a48b2c0f0bd7fe54c22",
  "args": [],
  "numDeployments": 1,
  "solcInputHash": "835ce42d7461cb68c629f4cd4f9097b2",
  "bytecode": "0x6080604052600160035534801561001557600080fd5b506040518060a00160405280607a81526020016117db607a91396100388161003e565b506101ab565b600261004a82826100ed565b5050565b634e487b7160e01b600052604160045260246000fd5b600181811c9082168061007857607f821691505b60208210810361009857634e487b7160e01b600052602260045260246000fd5b50919050565b601f8211156100e857806000526020600020601f840160051c810160208510156100c55750805b601f840160051c820191505b818110156100e557600081556001016100d1565b50505b505050565b81516001600160401b038111156101065761010661004e565b61011a816101148454610064565b8461009e565b6020601f82116001811461014e57600083156101365750848201515b600019600385901b1c1916600184901b1784556100e5565b600084815260208120601f198516915b8281101561017e578785015182556020948501946001909201910161015e565b508482101561019c5786840151600019600387901b60f8161c191681555b50505050600190811b01905550565b611621806101ba6000396000f3fe608060405234801561001057600080fd5b50600436106100a85760003560e01c80634e1273f4116100715780634e1273f4146101345780638de0f45314610154578063a22cb46514610167578063b32c4d8d1461017a578063e985e9c51461019d578063f242432a146101b057600080fd5b8062fdd58e146100ad57806301ffc9a7146100d35780630a763da1146100f65780630e89341c146100ff5780632eb2c2d61461011f575b600080fd5b6100c06100bb366004610dc8565b6101c3565b6040519081526020015b60405180910390f35b6100e66100e1366004610e0b565b6101eb565b60405190151581526020016100ca565b6100c060035481565b61011261010d366004610e2f565b61023b565b6040516100ca9190610e8e565b61013261012d366004610fed565b6102cf565b005b6101476101423660046110a0565b61033b565b6040516100ca91906111a3565b6101326101623660046111b6565b610407565b61013261017536600461124f565b6104f4565b61018d610188366004610e2f565b610503565b6040516100ca949392919061128b565b6100e66101ab3660046112d6565b6106c3565b6101326101be366004611309565b6106f1565b6000818152602081815260408083206001600160a01b03861684529091529020545b92915050565b60006001600160e01b03198216636cdb3d1360e11b148061021c57506001600160e01b031982166303a24d0760e21b145b806101e557506301ffc9a760e01b6001600160e01b03198316146101e5565b60606002805461024a90611361565b80601f016020809104026020016040519081016040528092919081815260200182805461027690611361565b80156102c35780601f10610298576101008083540402835291602001916102c3565b820191906000526020600020905b8154815290600101906020018083116102a657829003601f168201915b50505050509050919050565b336001600160a01b03861681148015906102f057506102ee86826106c3565b155b156103265760405163711bec9160e11b81526001600160a01b038083166004830152871660248201526044015b60405180910390fd5b6103338686868686610750565b505050505050565b6060815183511461036c5781518351604051635b05999160e01b81526004810192909252602482015260440161031d565b600083516001600160401b0381111561038757610387610ea1565b6040519080825280602002602001820160405280156103b0578160200160208202803683370190505b50905060005b84518110156103ff576020808202860101516103da906020808402870101516101c3565b8282815181106103ec576103ec61139b565b60209081029190910101526001016103b6565b509392505050565b60035460408051608081018252868152602080820187905281830186905242606083015260008481526004909152919091208151819061044790826113fd565b506020820151600182019061045c90826113fd565b506040820151600282019061047190826113fd565b506060820151816003015590505061049a338284604051806020016040528060008152506107b7565b807f376c41a377dfce2d601c5545d0a1affbbc67f39013e8cb222e250ae2bb3716e1868686426040516104d0949392919061128b565b60405180910390a2600380549060006104e8836114d1565b91905055505050505050565b6104ff338383610814565b5050565b60046020526000908152604090208054819061051e90611361565b80601f016020809104026020016040519081016040528092919081815260200182805461054a90611361565b80156105975780601f1061056c57610100808354040283529160200191610597565b820191906000526020600020905b81548152906001019060200180831161057a57829003601f168201915b5050505050908060010180546105ac90611361565b80601f01602080910402602001604051908101604052809291908181526020018280546105d890611361565b80156106255780601f106105fa57610100808354040283529160200191610625565b820191906000526020600020905b81548152906001019060200180831161060857829003601f168201915b50505050509080600201805461063a90611361565b80601f016020809104026020016040519081016040528092919081815260200182805461066690611361565b80156106b35780601f10610688576101008083540402835291602001916106b3565b820191906000526020600020905b81548152906001019060200180831161069657829003601f168201915b5050505050908060030154905084565b6001600160a01b03918216600090815260016020908152604080832093909416825291909152205460ff1690565b336001600160a01b0386168114801590610712575061071086826106c3565b155b156107435760405163711bec9160e11b81526001600160a01b0380831660048301528716602482015260440161031d565b61033386868686866108aa565b6001600160a01b03841661077a57604051632bfa23e760e11b81526000600482015260240161031d565b6001600160a01b0385166107a357604051626a0d4560e21b81526000600482015260240161031d565b6107b08585858585610938565b5050505050565b6001600160a01b0384166107e157604051632bfa23e760e11b81526000600482015260240161031d565b60408051600180825260208201869052818301908152606082018590526080820190925290610333600087848487610938565b6001600160a01b03821661083d5760405162ced3e160e81b81526000600482015260240161031d565b6001600160a01b03838116600081815260016020908152604080832094871680845294825291829020805460ff191686151590811790915591519182527f17307eab39ab6107e8899845ad3d59bd9653f200f220920489ca2b5937696c31910160405180910390a3505050565b6001600160a01b0384166108d457604051632bfa23e760e11b81526000600482015260240161031d565b6001600160a01b0385166108fd57604051626a0d4560e21b81526000600482015260240161031d565b6040805160018082526020820186905281830190815260608201859052608082019092529061092f8787848487610938565b50505050505050565b6109448585858561098b565b6001600160a01b038416156107b0578251339060010361097d5760208481015190840151610976838989858589610b9f565b5050610333565b610333818787878787610cc3565b80518251146109ba5781518151604051635b05999160e01b81526004810192909252602482015260440161031d565b3360005b8351811015610ac0576020818102858101820151908501909101516001600160a01b03881615610a71576000828152602081815260408083206001600160a01b038c16845290915290205481811015610a4a576040516303dee4c560e01b81526001600160a01b038a16600482015260248101829052604481018390526064810184905260840161031d565b6000838152602081815260408083206001600160a01b038d16845290915290209082900390555b6001600160a01b03871615610ab6576000828152602081815260408083206001600160a01b038b16845290915281208054839290610ab09084906114ea565b90915550505b50506001016109be565b508251600103610b415760208301516000906020840151909150856001600160a01b0316876001600160a01b0316846001600160a01b03167fc3d58168c5ae7397731d063d5bbf3d657854427343f4c083240f7aacaa2d0f628585604051610b32929190918252602082015260400190565b60405180910390a450506107b0565b836001600160a01b0316856001600160a01b0316826001600160a01b03167f4a39dc06d4c0dbc64b70af90fd698a233a518aa5d07e595d983b8c0526c8f7fb8686604051610b909291906114fd565b60405180910390a45050505050565b6001600160a01b0384163b156103335760405163f23a6e6160e01b81526001600160a01b0385169063f23a6e6190610be3908990899088908890889060040161152b565b6020604051808303816000875af1925050508015610c1e575060408051601f3d908101601f19168201909252610c1b91810190611570565b60015b610c87573d808015610c4c576040519150601f19603f3d011682016040523d82523d6000602084013e610c51565b606091505b508051600003610c7f57604051632bfa23e760e11b81526001600160a01b038616600482015260240161031d565b805181602001fd5b6001600160e01b0319811663f23a6e6160e01b1461092f57604051632bfa23e760e11b81526001600160a01b038616600482015260240161031d565b6001600160a01b0384163b156103335760405163bc197c8160e01b81526001600160a01b0385169063bc197c8190610d07908990899088908890889060040161158d565b6020604051808303816000875af1925050508015610d42575060408051601f3d908101601f19168201909252610d3f91810190611570565b60015b610d70573d808015610c4c576040519150601f19603f3d011682016040523d82523d6000602084013e610c51565b6001600160e01b0319811663bc197c8160e01b1461092f57604051632bfa23e760e11b81526001600160a01b038616600482015260240161031d565b80356001600160a01b0381168114610dc357600080fd5b919050565b60008060408385031215610ddb57600080fd5b610de483610dac565b946020939093013593505050565b6001600160e01b031981168114610e0857600080fd5b50565b600060208284031215610e1d57600080fd5b8135610e2881610df2565b9392505050565b600060208284031215610e4157600080fd5b5035919050565b6000815180845260005b81811015610e6e57602081850181015186830182015201610e52565b506000602082860101526020601f19601f83011685010191505092915050565b602081526000610e286020830184610e48565b634e487b7160e01b600052604160045260246000fd5b604051601f8201601f191681016001600160401b0381118282101715610edf57610edf610ea1565b604052919050565b60006001600160401b03821115610f0057610f00610ea1565b5060051b60200190565b600082601f830112610f1b57600080fd5b8135610f2e610f2982610ee7565b610eb7565b8082825260208201915060208360051b860101925085831115610f5057600080fd5b602085015b83811015610f6d578035835260209283019201610f55565b5095945050505050565b600082601f830112610f8857600080fd5b8135602083016000806001600160401b03841115610fa857610fa8610ea1565b50601f8301601f1916602001610fbd81610eb7565b915050828152858383011115610fd257600080fd5b82826020830137600092810160200192909252509392505050565b600080600080600060a0868803121561100557600080fd5b61100e86610dac565b945061101c60208701610dac565b935060408601356001600160401b0381111561103757600080fd5b61104388828901610f0a565b93505060608601356001600160401b0381111561105f57600080fd5b61106b88828901610f0a565b92505060808601356001600160401b0381111561108757600080fd5b61109388828901610f77565b9150509295509295909350565b600080604083850312156110b357600080fd5b82356001600160401b038111156110c957600080fd5b8301601f810185136110da57600080fd5b80356110e8610f2982610ee7565b8082825260208201915060208360051b85010192508783111561110a57600080fd5b6020840193505b828410156111335761112284610dac565b825260209384019390910190611111565b945050505060208301356001600160401b0381111561115157600080fd5b61115d85828601610f0a565b9150509250929050565b600081518084526020840193506020830160005b8281101561119957815186526020958601959091019060010161117b565b5093949350505050565b602081526000610e286020830184611167565b600080600080608085870312156111cc57600080fd5b84356001600160401b038111156111e257600080fd5b6111ee87828801610f77565b94505060208501356001600160401b0381111561120a57600080fd5b61121687828801610f77565b93505060408501356001600160401b0381111561123257600080fd5b61123e87828801610f77565b949793965093946060013593505050565b6000806040838503121561126257600080fd5b61126b83610dac565b91506020830135801515811461128057600080fd5b809150509250929050565b60808152600061129e6080830187610e48565b82810360208401526112b08187610e48565b905082810360408401526112c48186610e48565b91505082606083015295945050505050565b600080604083850312156112e957600080fd5b6112f283610dac565b915061130060208401610dac565b90509250929050565b600080600080600060a0868803121561132157600080fd5b61132a86610dac565b945061133860208701610dac565b9350604086013592506060860135915060808601356001600160401b0381111561108757600080fd5b600181811c9082168061137557607f821691505b60208210810361139557634e487b7160e01b600052602260045260246000fd5b50919050565b634e487b7160e01b600052603260045260246000fd5b601f8211156113f857806000526020600020601f840160051c810160208510156113d85750805b601f840160051c820191505b818110156107b057600081556001016113e4565b505050565b81516001600160401b0381111561141657611416610ea1565b61142a816114248454611361565b846113b1565b6020601f82116001811461145e57600083156114465750848201515b600019600385901b1c1916600184901b1784556107b0565b600084815260208120601f198516915b8281101561148e578785015182556020948501946001909201910161146e565b50848210156114ac5786840151600019600387901b60f8161c191681555b50505050600190811b01905550565b634e487b7160e01b600052601160045260246000fd5b6000600182016114e3576114e36114bb565b5060010190565b808201808211156101e5576101e56114bb565b6040815260006115106040830185611167565b82810360208401526115228185611167565b95945050505050565b6001600160a01b03868116825285166020820152604081018490526060810183905260a06080820181905260009061156590830184610e48565b979650505050505050565b60006020828403121561158257600080fd5b8151610e2881610df2565b6001600160a01b0386811682528516602082015260a0604082018190526000906115b990830186611167565b82810360608401526115cb8186611167565b905082810360808401526115df8185610e48565b9897505050505050505056fea2646970667358221220dcc154767a87fd8a1526c47087dc9f437ae5072b15b2a795cbcdf10d1b56215464736f6c634300081e003368747470733a2f2f677261792d73656c65637465642d636f6e646f722d3532362e6d7970696e6174612e636c6f75642f697066732f62616679626569686d33353778777a6a35636173757376733471617878786e6c326a6a6c6e786d6e76637a667264776937357675376e6b667172752f7b69647d2e6a736f6e",
  "devdoc": {
    "errors": {
      "ERC1155InsufficientBalance(address,uint256,uint256,uint256)": [
        {
          "details": "Indicates an error related to the current `balance` of a `sender`. Used in transfers.",
          "params": {
            "balance": "Current balance for the interacting account.",
            "needed": "Minimum amount required to perform a transfer.",
            "sender": "Address whose tokens are being transferred.",
            "tokenId": "Identifier number of a token."
          }
        }
      ],
      "ERC1155InvalidApprover(address)": [
        {
          "details": "Indicates a failure with the `approver` of a token to be approved. Used in approvals.",
          "params": {
            "approver": "Address initiating an approval operation."
          }
        }
      ],
      "ERC1155InvalidArrayLength(uint256,uint256)": [
        {
          "details": "Indicates an array length mismatch between ids and values in a safeBatchTransferFrom operation. Used in batch transfers.",
          "params": {
            "idsLength": "Length of the array of token identifiers",
            "valuesLength": "Length of the array of token amounts"
          }
        }
      ],
      "ERC1155InvalidOperator(address)": [
        {
          "details": "Indicates a failure with the `operator` to be approved. Used in approvals.",
          "params": {
            "operator": "Address that may be allowed to operate on tokens without being their owner."
          }
        }
      ],
      "ERC1155InvalidReceiver(address)": [
        {
          "details": "Indicates a failure with the token `receiver`. Used in transfers.",
          "params": {
            "receiver": "Address to which tokens are being transferred."
          }
        }
      ],
      "ERC1155InvalidSender(address)": [
        {
          "details": "Indicates a failure with the token `sender`. Used in transfers.",
          "params": {
            "sender": "Address whose tokens are being transferred."
          }
        }
      ],
      "ERC1155MissingApprovalForAll(address,address)": [
        {
          "details": "Indicates a failure with the `operator`s approval. Used in transfers.",
          "params": {
            "operator": "Address that may be allowed to operate on tokens without being their owner.",
            "owner": "Address of the current owner of a token."
          }
        }
      ]
    },
    "events": {
      "ApprovalForAll(address,address,bool)": {
        "details": "Emitted when `account` grants or revokes permission to `operator` to transfer their tokens, according to `approved`."
      },
      "TransferBatch(address,address,address,uint256[],uint256[])": {
        "details": "Equivalent to multiple {TransferSingle} events, where `operator`, `from` and `to` are the same for all transfers."
      },
      "TransferSingle(address,address,address,uint256,uint256)": {
        "details": "Emitted when `value` amount of tokens of type `id` are transferred from `from` to `to` by `operator`."
      },
      "URI(string,uint256)": {
        "details": "Emitted when the URI for token type `id` changes to `value`, if it is a non-programmatic URI. If an {URI} event was emitted for `id`, the standard https://eips.ethereum.org/EIPS/eip-1155#metadata-extensions[guarantees] that `value` will equal the value returned by {IERC1155MetadataURI-uri}."
      }
    },
    "kind": "dev",
    "methods": {
      "balanceOf(address,uint256)": {
        "details": "See {IERC1155-balanceOf}."
      },
      "balanceOfBatch(address[],uint256[])": {
        "details": "See {IERC1155-balanceOfBatch}. Requirements: - `accounts` and `ids` must have the same length."
      },
      "isApprovedForAll(address,address)": {
        "details": "See {IERC1155-isApprovedForAll}."
      },
      "safeBatchTransferFrom(address,address,uint256[],uint256[],bytes)": {
        "details": "See {IERC1155-safeBatchTransferFrom}."
      },
      "safeTransferFrom(address,address,uint256,uint256,bytes)": {
        "details": "See {IERC1155-safeTransferFrom}."
      },
      "setApprovalForAll(address,bool)": {
        "details": "See {IERC1155-setApprovalForAll}."
      },
      "supportsInterface(bytes4)": {
        "details": "See {IERC165-supportsInterface}."
      },
      "uri(uint256)": {
        "details": "See {IERC1155MetadataURI-uri}. This implementation returns the same URI for *all* token types. It relies on the token type ID substitution mechanism https://eips.ethereum.org/EIPS/eip-1155#metadata[defined in the EIP]. Clients calling this function must replace the `\\{id\\}` substring with the actual token type ID."
      }
    },
    "version": 1
  },
  "userdoc": {
    "kind": "user",
    "methods": {},
    "version": 1
  },
  "storageLayout": {
    "storage": [
      {
        "astId": 178,
        "contract": "contracts/YourContract.sol:CoffeeTracker",
        "label": "_balances",
        "offset": 0,
        "slot": "0",
        "type": "t_mapping(t_uint256,t_mapping(t_address,t_uint256))"
      },
      {
        "astId": 184,
        "contract": "contracts/YourContract.sol:CoffeeTracker",
        "label": "_operatorApprovals",
        "offset": 0,
        "slot": "1",
        "type": "t_mapping(t_address,t_mapping(t_address,t_bool))"
      },
      {
        "astId": 186,
        "contract": "contracts/YourContract.sol:CoffeeTracker",
        "label": "_uri",
        "offset": 0,
        "slot": "2",
        "type": "t_string_storage"
      },
      {
        "astId": 2791,
        "contract": "contracts/YourContract.sol:CoffeeTracker",
        "label": "currentBatchId",
        "offset": 0,
        "slot": "3",
        "type": "t_uint256"
      },
      {
        "astId": 2805,
        "contract": "contracts/YourContract.sol:CoffeeTracker",
        "label": "batches",
        "offset": 0,
        "slot": "4",
        "type": "t_mapping(t_uint256,t_struct(CoffeeBatch)2800_storage)"
      }
    ],
    "types": {
      "t_address": {
        "encoding": "inplace",
        "label": "address",
        "numberOfBytes": "20"
      },
      "t_bool": {
        "encoding": "inplace",
        "label": "bool",
        "numberOfBytes": "1"
      },
      "t_mapping(t_address,t_bool)": {
        "encoding": "mapping",
        "key": "t_address",
        "label": "mapping(address => bool)",
        "numberOfBytes": "32",
        "value": "t_bool"
      },
      "t_mapping(t_address,t_mapping(t_address,t_bool))": {
        "encoding": "mapping",
        "key": "t_address",
        "label": "mapping(address => mapping(address => bool))",
        "numberOfBytes": "32",
        "value": "t_mapping(t_address,t_bool)"
      },
      "t_mapping(t_address,t_uint256)": {
        "encoding": "mapping",
        "key": "t_address",
        "label": "mapping(address => uint256)",
        "numberOfBytes": "32",
        "value": "t_uint256"
      },
      "t_mapping(t_uint256,t_mapping(t_address,t_uint256))": {
        "encoding": "mapping",
        "key": "t_uint256",
        "label": "mapping(uint256 => mapping(address => uint256))",
        "numberOfBytes": "32",
        "value": "t_mapping(t_address,t_uint256)"
      },
      "t_mapping(t_uint256,t_struct(CoffeeBatch)2800_storage)": {
        "encoding": "mapping",
        "key": "t_uint256",
        "label": "mapping(uint256 => struct CoffeeTracker.CoffeeBatch)",
        "numberOfBytes": "32",
        "value": "t_struct(CoffeeBatch)2800_storage"
      },
      "t_string_storage": {
        "encoding": "bytes",
        "label": "string",
        "numberOfBytes": "32"
      },
      "t_struct(CoffeeBatch)2800_storage": {
        "encoding": "inplace",
        "label": "struct CoffeeTracker.CoffeeBatch",
        "members": [
          {
            "astId": 2793,
            "contract": "contracts/YourContract.sol:CoffeeTracker",
            "label": "farmName",
            "offset": 0,
            "slot": "0",
            "type": "t_string_storage"
          },
          {
            "astId": 2795,
            "contract": "contracts/YourContract.sol:CoffeeTracker",
            "label": "region",
            "offset": 0,
            "slot": "1",
            "type": "t_string_storage"
          },
          {
            "astId": 2797,
            "contract": "contracts/YourContract.sol:CoffeeTracker",
            "label": "variety",
            "offset": 0,
            "slot": "2",
            "type": "t_string_storage"
          },
          {
            "astId": 2799,
            "contract": "contracts/YourContract.sol:CoffeeTracker",
            "label": "harvestDate",
            "offset": 0,
            "slot": "3",
            "type": "t_uint256"
          }
        ],
        "numberOfBytes": "128"
      },
      "t_uint256": {
        "encoding": "inplace",
        "label": "uint256",
        "numberOfBytes": "32"
      }
    }
  }
}